{
  "contractName": "Central",
  "abi": [
    {
      "inputs": [],
      "name": "createSmartContract",
      "outputs": [],
      "stateMutability": "nonpayable",
      "type": "function"
    },
    {
      "inputs": [
        {
          "internalType": "address",
          "name": "_walletAddress",
          "type": "address"
        }
      ],
      "name": "getCompanySmartContractAddress",
      "outputs": [
        {
          "internalType": "address",
          "name": "",
          "type": "address"
        }
      ],
      "stateMutability": "view",
      "type": "function"
    },
    {
      "inputs": [
        {
          "internalType": "address",
          "name": "_ownerAddress",
          "type": "address"
        },
        {
          "internalType": "address",
          "name": "_contractAddress",
          "type": "address"
        },
        {
          "internalType": "uint256[]",
          "name": "_products",
          "type": "uint256[]"
        }
      ],
      "name": "addproduct",
      "outputs": [
        {
          "internalType": "string",
          "name": "",
          "type": "string"
        }
      ],
      "stateMutability": "nonpayable",
      "type": "function"
    },
    {
      "inputs": [
        {
          "internalType": "address",
          "name": "_contractAddress",
          "type": "address"
        },
        {
          "internalType": "uint256",
          "name": "_productHashCode",
          "type": "uint256"
        }
      ],
      "name": "checkProduct",
      "outputs": [
        {
          "internalType": "string",
          "name": "",
          "type": "string"
        }
      ],
      "stateMutability": "view",
      "type": "function"
    },
    {
      "inputs": [
        {
          "internalType": "address",
          "name": "_val",
          "type": "address"
        }
      ],
      "name": "retrieve",
      "outputs": [
        {
          "internalType": "address",
          "name": "",
          "type": "address"
        }
      ],
      "stateMutability": "pure",
      "type": "function"
    }
  ],
  "bytecode": "0x608060405234801561000f575f80fd5b506110cf8061001d5f395ff3fe608060405234801561000f575f80fd5b5060043610610055575f3560e01c80630a79309b1461005957806325a0f0d0146100895780633e0920f6146100b95780634d581a37146100e95780639b7ff3eb146100f3575b5f80fd5b610073600480360381019061006e9190610428565b610123565b6040516100809190610462565b60405180910390f35b6100a3600480360381019061009e9190610428565b61012c565b6040516100b09190610462565b60405180910390f35b6100d360048036038101906100ce91906105fe565b610191565b6040516100e091906106e4565b60405180910390f35b6100f161021a565b005b61010d60048036038101906101089190610704565b61032b565b60405161011a91906106e4565b60405180910390f35b5f819050919050565b5f60015f8373ffffffffffffffffffffffffffffffffffffffff1673ffffffffffffffffffffffffffffffffffffffff1681526020019081526020015f205f9054906101000a900473ffffffffffffffffffffffffffffffffffffffff169050919050565b60608273ffffffffffffffffffffffffffffffffffffffff166320bf63ac85846040518363ffffffff1660e01b81526004016101ce9291906107f9565b5f604051808303815f875af11580156101e9573d5f803e3d5ffd5b505050506040513d5f823e3d601f19601f8201168201806040525081019061021191906108c9565b90509392505050565b5f33604051610228906103b0565b6102329190610462565b604051809103905ff08015801561024b573d5f803e3d5ffd5b5090505f81908060018154018082558091505060019003905f5260205f20015f9091909190916101000a81548173ffffffffffffffffffffffffffffffffffffffff021916908373ffffffffffffffffffffffffffffffffffffffff1602179055508060015f3373ffffffffffffffffffffffffffffffffffffffff1673ffffffffffffffffffffffffffffffffffffffff1681526020019081526020015f205f6101000a81548173ffffffffffffffffffffffffffffffffffffffff021916908373ffffffffffffffffffffffffffffffffffffffff16021790555050565b60608273ffffffffffffffffffffffffffffffffffffffff1663524e8462836040518263ffffffff1660e01b8152600401610366919061091f565b5f60405180830381865afa158015610380573d5f803e3d5ffd5b505050506040513d5f823e3d601f19601f820116820180604052508101906103a891906108c9565b905092915050565b6107618061093983390190565b5f604051905090565b5f80fd5b5f80fd5b5f73ffffffffffffffffffffffffffffffffffffffff82169050919050565b5f6103f7826103ce565b9050919050565b610407816103ed565b8114610411575f80fd5b50565b5f81359050610422816103fe565b92915050565b5f6020828403121561043d5761043c6103c6565b5b5f61044a84828501610414565b91505092915050565b61045c816103ed565b82525050565b5f6020820190506104755f830184610453565b92915050565b5f80fd5b5f601f19601f8301169050919050565b7f4e487b71000000000000000000000000000000000000000000000000000000005f52604160045260245ffd5b6104c58261047f565b810181811067ffffffffffffffff821117156104e4576104e361048f565b5b80604052505050565b5f6104f66103bd565b905061050282826104bc565b919050565b5f67ffffffffffffffff8211156105215761052061048f565b5b602082029050602081019050919050565b5f80fd5b5f819050919050565b61054881610536565b8114610552575f80fd5b50565b5f813590506105638161053f565b92915050565b5f61057b61057684610507565b6104ed565b9050808382526020820190506020840283018581111561059e5761059d610532565b5b835b818110156105c757806105b38882610555565b8452602084019350506020810190506105a0565b5050509392505050565b5f82601f8301126105e5576105e461047b565b5b81356105f5848260208601610569565b91505092915050565b5f805f60608486031215610615576106146103c6565b5b5f61062286828701610414565b935050602061063386828701610414565b925050604084013567ffffffffffffffff811115610654576106536103ca565b5b610660868287016105d1565b9150509250925092565b5f81519050919050565b5f82825260208201905092915050565b5f5b838110156106a1578082015181840152602081019050610686565b5f8484015250505050565b5f6106b68261066a565b6106c08185610674565b93506106d0818560208601610684565b6106d98161047f565b840191505092915050565b5f6020820190508181035f8301526106fc81846106ac565b905092915050565b5f806040838503121561071a576107196103c6565b5b5f61072785828601610414565b925050602061073885828601610555565b9150509250929050565b5f81519050919050565b5f82825260208201905092915050565b5f819050602082019050919050565b61077481610536565b82525050565b5f610785838361076b565b60208301905092915050565b5f602082019050919050565b5f6107a782610742565b6107b1818561074c565b93506107bc8361075c565b805f5b838110156107ec5781516107d3888261077a565b97506107de83610791565b9250506001810190506107bf565b5085935050505092915050565b5f60408201905061080c5f830185610453565b818103602083015261081e818461079d565b90509392505050565b5f80fd5b5f67ffffffffffffffff8211156108455761084461048f565b5b61084e8261047f565b9050602081019050919050565b5f61086d6108688461082b565b6104ed565b90508281526020810184848401111561088957610888610827565b5b610894848285610684565b509392505050565b5f82601f8301126108b0576108af61047b565b5b81516108c084826020860161085b565b91505092915050565b5f602082840312156108de576108dd6103c6565b5b5f82015167ffffffffffffffff8111156108fb576108fa6103ca565b5b6109078482850161089c565b91505092915050565b61091981610536565b82525050565b5f6020820190506109325f830184610910565b9291505056fe608060405234801561000f575f80fd5b50604051610761380380610761833981810160405281019061003191906100d5565b8060025f6101000a81548173ffffffffffffffffffffffffffffffffffffffff021916908373ffffffffffffffffffffffffffffffffffffffff16021790555050610100565b5f80fd5b5f73ffffffffffffffffffffffffffffffffffffffff82169050919050565b5f6100a48261007b565b9050919050565b6100b48161009a565b81146100be575f80fd5b50565b5f815190506100cf816100ab565b92915050565b5f602082840312156100ea576100e9610077565b5b5f6100f7848285016100c1565b91505092915050565b6106548061010d5f395ff3fe608060405234801561000f575f80fd5b5060043610610034575f3560e01c806320bf63ac14610038578063524e846214610068575b5f80fd5b610052600480360381019061004d919061045e565b610098565b60405161005f9190610532565b60405180910390f35b610082600480360381019061007d9190610552565b6101d0565b60405161008f9190610532565b60405180910390f35b606060025f9054906101000a900473ffffffffffffffffffffffffffffffffffffffff1673ffffffffffffffffffffffffffffffffffffffff168373ffffffffffffffffffffffffffffffffffffffff16146100f2575f80fd5b5f5b8251811015610191575f8382815181106101115761011061057d565b5b6020026020010151908060018154018082558091505060019003905f5260205f20015f90919091909150556001805f8584815181106101535761015261057d565b5b602002602001015181526020019081526020015f205f6101000a81548160ff0219169083151502179055508080610189906105d7565b9150506100f4565b6040518060400160405280600e81526020017f50726f647563747320616464656400000000000000000000000000000000000081525091505092915050565b606060015f8381526020019081526020015f205f9054906101000a900460ff1615610232576040518060400160405280600d81526020017f41757468656e7469636174656400000000000000000000000000000000000000815250905061026b565b6040518060400160405280600b81526020017f436f756e7465726665697400000000000000000000000000000000000000000081525090505b919050565b5f604051905090565b5f80fd5b5f80fd5b5f73ffffffffffffffffffffffffffffffffffffffff82169050919050565b5f6102aa82610281565b9050919050565b6102ba816102a0565b81146102c4575f80fd5b50565b5f813590506102d5816102b1565b92915050565b5f80fd5b5f601f19601f8301169050919050565b7f4e487b71000000000000000000000000000000000000000000000000000000005f52604160045260245ffd5b610325826102df565b810181811067ffffffffffffffff82111715610344576103436102ef565b5b80604052505050565b5f610356610270565b9050610362828261031c565b919050565b5f67ffffffffffffffff821115610381576103806102ef565b5b602082029050602081019050919050565b5f80fd5b5f819050919050565b6103a881610396565b81146103b2575f80fd5b50565b5f813590506103c38161039f565b92915050565b5f6103db6103d684610367565b61034d565b905080838252602082019050602084028301858111156103fe576103fd610392565b5b835b81811015610427578061041388826103b5565b845260208401935050602081019050610400565b5050509392505050565b5f82601f830112610445576104446102db565b5b81356104558482602086016103c9565b91505092915050565b5f806040838503121561047457610473610279565b5b5f610481858286016102c7565b925050602083013567ffffffffffffffff8111156104a2576104a161027d565b5b6104ae85828601610431565b9150509250929050565b5f81519050919050565b5f82825260208201905092915050565b5f5b838110156104ef5780820151818401526020810190506104d4565b5f8484015250505050565b5f610504826104b8565b61050e81856104c2565b935061051e8185602086016104d2565b610527816102df565b840191505092915050565b5f6020820190508181035f83015261054a81846104fa565b905092915050565b5f6020828403121561056757610566610279565b5b5f610574848285016103b5565b91505092915050565b7f4e487b71000000000000000000000000000000000000000000000000000000005f52603260045260245ffd5b7f4e487b71000000000000000000000000000000000000000000000000000000005f52601160045260245ffd5b5f6105e182610396565b91507fffffffffffffffffffffffffffffffffffffffffffffffffffffffffffffffff8203610613576106126105aa565b5b60018201905091905056fea2646970667358221220b977dba4d990b9be2aebd9b60ad59855fc1a58a8247fe8f7b442bedcbdbc2c1564736f6c63430008150033a2646970667358221220786018cbef8333212c39e6aeca1b3a756799d8ae8ba10c667d0c4abfc4817cc564736f6c63430008150033",
  "immutableReferences": {},
  "source": "//SPDX-License-Identifier: MIT\r\n\r\npragma solidity ^0.8.0;\r\n\r\nimport \"./Company.sol\";\r\n\r\ncontract Central {\r\n    address[] walletAddresses;\r\n\r\n    mapping(address => address) walletAddressToSmartContractAddress;\r\n\r\n    function createSmartContract() public {\r\n        Company companyContract = new Company(msg.sender);\r\n        walletAddresses.push(address(companyContract));\r\n        walletAddressToSmartContractAddress[msg.sender] = address(\r\n            companyContract\r\n        );\r\n    }\r\n\r\n    function getCompanySmartContractAddress(address _walletAddress)\r\n    public\r\n    view\r\n    returns (address)\r\n    {\r\n        return walletAddressToSmartContractAddress[_walletAddress];\r\n    }\r\n\r\n    function addproduct(\r\n        address _ownerAddress,\r\n        address _contractAddress,\r\n        uint256[] memory _products\r\n    ) public returns (string memory) {\r\n        return Company(_contractAddress).addProducts(_ownerAddress, _products);\r\n    }\r\n\r\n    function checkProduct(address _contractAddress, uint256 _productHashCode)\r\n    public\r\n    view\r\n    returns (string memory)\r\n    {\r\n        return Company(_contractAddress).verifyProduct(_productHashCode);\r\n    }\r\n\r\n    function retrieve(address _val) public pure returns (address) {\r\n        return _val;\r\n    }\r\n}",
  "sourcePath": "C:\\Users\\varsh\\StudioProjects\\varshini\\my-ethereum-project\\contracts\\Central.sol",
  "compiler": {
    "name": "solc",
    "version": "0.8.21+commit.d9974bed.Emscripten.clang"
  },
  "schemaVersion": "3.4.16",
  "updatedAt": "2024-12-15T05:39:48.262Z",
  "devdoc": {
    "kind": "dev",
    "methods": {},
    "version": 1
  },
  "userdoc": {
    "kind": "user",
    "methods": {},
    "version": 1
  }
}