{
  "contractName": "Company",
  "abi": [
    {
      "inputs": [
        {
          "internalType": "address",
          "name": "_owner",
          "type": "address"
        }
      ],
      "stateMutability": "nonpayable",
      "type": "constructor"
    },
    {
      "inputs": [
        {
          "internalType": "address",
          "name": "_ownerAddress",
          "type": "address"
        },
        {
          "internalType": "uint256[]",
          "name": "_products",
          "type": "uint256[]"
        }
      ],
      "name": "addProducts",
      "outputs": [
        {
          "internalType": "string",
          "name": "",
          "type": "string"
        }
      ],
      "stateMutability": "nonpayable",
      "type": "function"
    },
    {
      "inputs": [
        {
          "internalType": "uint256",
          "name": "_hashcode",
          "type": "uint256"
        }
      ],
      "name": "verifyProduct",
      "outputs": [
        {
          "internalType": "string",
          "name": "",
          "type": "string"
        }
      ],
      "stateMutability": "view",
      "type": "function",
      "constant": true
    }
  ],
  "bytecode": "0x608060405234801561000f575f80fd5b50604051610761380380610761833981810160405281019061003191906100d5565b8060025f6101000a81548173ffffffffffffffffffffffffffffffffffffffff021916908373ffffffffffffffffffffffffffffffffffffffff16021790555050610100565b5f80fd5b5f73ffffffffffffffffffffffffffffffffffffffff82169050919050565b5f6100a48261007b565b9050919050565b6100b48161009a565b81146100be575f80fd5b50565b5f815190506100cf816100ab565b92915050565b5f602082840312156100ea576100e9610077565b5b5f6100f7848285016100c1565b91505092915050565b6106548061010d5f395ff3fe608060405234801561000f575f80fd5b5060043610610034575f3560e01c806320bf63ac14610038578063524e846214610068575b5f80fd5b610052600480360381019061004d919061045e565b610098565b60405161005f9190610532565b60405180910390f35b610082600480360381019061007d9190610552565b6101d0565b60405161008f9190610532565b60405180910390f35b606060025f9054906101000a900473ffffffffffffffffffffffffffffffffffffffff1673ffffffffffffffffffffffffffffffffffffffff168373ffffffffffffffffffffffffffffffffffffffff16146100f2575f80fd5b5f5b8251811015610191575f8382815181106101115761011061057d565b5b6020026020010151908060018154018082558091505060019003905f5260205f20015f90919091909150556001805f8584815181106101535761015261057d565b5b602002602001015181526020019081526020015f205f6101000a81548160ff0219169083151502179055508080610189906105d7565b9150506100f4565b6040518060400160405280600e81526020017f50726f647563747320616464656400000000000000000000000000000000000081525091505092915050565b606060015f8381526020019081526020015f205f9054906101000a900460ff1615610232576040518060400160405280600d81526020017f41757468656e7469636174656400000000000000000000000000000000000000815250905061026b565b6040518060400160405280600b81526020017f436f756e7465726665697400000000000000000000000000000000000000000081525090505b919050565b5f604051905090565b5f80fd5b5f80fd5b5f73ffffffffffffffffffffffffffffffffffffffff82169050919050565b5f6102aa82610281565b9050919050565b6102ba816102a0565b81146102c4575f80fd5b50565b5f813590506102d5816102b1565b92915050565b5f80fd5b5f601f19601f8301169050919050565b7f4e487b71000000000000000000000000000000000000000000000000000000005f52604160045260245ffd5b610325826102df565b810181811067ffffffffffffffff82111715610344576103436102ef565b5b80604052505050565b5f610356610270565b9050610362828261031c565b919050565b5f67ffffffffffffffff821115610381576103806102ef565b5b602082029050602081019050919050565b5f80fd5b5f819050919050565b6103a881610396565b81146103b2575f80fd5b50565b5f813590506103c38161039f565b92915050565b5f6103db6103d684610367565b61034d565b905080838252602082019050602084028301858111156103fe576103fd610392565b5b835b81811015610427578061041388826103b5565b845260208401935050602081019050610400565b5050509392505050565b5f82601f830112610445576104446102db565b5b81356104558482602086016103c9565b91505092915050565b5f806040838503121561047457610473610279565b5b5f610481858286016102c7565b925050602083013567ffffffffffffffff8111156104a2576104a161027d565b5b6104ae85828601610431565b9150509250929050565b5f81519050919050565b5f82825260208201905092915050565b5f5b838110156104ef5780820151818401526020810190506104d4565b5f8484015250505050565b5f610504826104b8565b61050e81856104c2565b935061051e8185602086016104d2565b610527816102df565b840191505092915050565b5f6020820190508181035f83015261054a81846104fa565b905092915050565b5f6020828403121561056757610566610279565b5b5f610574848285016103b5565b91505092915050565b7f4e487b71000000000000000000000000000000000000000000000000000000005f52603260045260245ffd5b7f4e487b71000000000000000000000000000000000000000000000000000000005f52601160045260245ffd5b5f6105e182610396565b91507fffffffffffffffffffffffffffffffffffffffffffffffffffffffffffffffff8203610613576106126105aa565b5b60018201905091905056fea2646970667358221220b977dba4d990b9be2aebd9b60ad59855fc1a58a8247fe8f7b442bedcbdbc2c1564736f6c63430008150033",
  "immutableReferences": {},
  "source": "//SPDX-License-Identifier: MIT\r\n\r\npragma solidity ^0.8.0;\r\n\r\ncontract Company {\r\n    uint256[] Products;\r\n\r\n    mapping(uint256 => bool) hashcodeToTrue;\r\n\r\n    address owner;\r\n\r\n    constructor(address _owner) {\r\n        owner = _owner;\r\n    }\r\n\r\n    modifier onlyOwner() {\r\n        require(msg.sender == owner);\r\n        _;\r\n    }\r\n\r\n    function addProducts(address _ownerAddress, uint256[] memory _products)\r\n    public\r\n    returns (string memory)\r\n    {\r\n        require(_ownerAddress == owner);\r\n        uint256 i;\r\n\r\n        for (i; i < _products.length; i++) {\r\n            Products.push(_products[i]);\r\n            hashcodeToTrue[_products[i]] = true;\r\n        }\r\n\r\n        return \"Products added\";\r\n    }\r\n\r\n    function verifyProduct(uint256 _hashcode)\r\n    public\r\n    view\r\n    returns (string memory)\r\n    {\r\n        if (hashcodeToTrue[_hashcode]) {\r\n            return \"Authenticated\";\r\n        } else {\r\n            return \"Counterfeit\";\r\n        }\r\n    }\r\n}",
  "sourcePath": "C:\\Users\\varsh\\StudioProjects\\varshini\\my-ethereum-project\\contracts\\Company.sol",
  "compiler": {
    "name": "solc",
    "version": "0.8.21+commit.d9974bed.Emscripten.clang"
  },
  "schemaVersion": "3.4.16",
  "updatedAt": "2024-12-15T05:39:51.228Z",
  "networkType": "ethereum",
  "devdoc": {
    "kind": "dev",
    "methods": {},
    "version": 1
  },
  "userdoc": {
    "kind": "user",
    "methods": {},
    "version": 1
  }
}